{
  "_format": "hh-sol-artifact-1",
  "contractName": "L1ERC20Bridge",
  "sourceName": "l1/contracts/L1ERC20Bridge.sol",
  "abi": [
    {
      "inputs": [
        {
          "internalType": "bytes[]",
          "name": "_factoryDeps",
          "type": "bytes[]"
        },
        {
          "components": [
            {
              "internalType": "address",
              "name": "_l1Token",
              "type": "address"
            },
            {
              "internalType": "address",
              "name": "_l2Token",
              "type": "address"
            },
            {
              "internalType": "address",
              "name": "_zkSync",
              "type": "address"
            }
          ],
          "internalType": "struct IL1ERC20Bridge.InitializeAddressesParams",
          "name": "addresses",
          "type": "tuple"
        },
        {
          "internalType": "uint256",
          "name": "_deployBridgeImplementationFee",
          "type": "uint256"
        }
      ],
      "stateMutability": "payable",
      "type": "constructor"
    },
    {
      "inputs": [],
      "name": "ErrorAccountIsZeroAddress",
      "type": "error"
    },
    {
      "inputs": [],
      "name": "ErrorUnsupportedL1Token",
      "type": "error"
    },
    {
      "inputs": [],
      "name": "ErrorUnsupportedL2Token",
      "type": "error"
    },
    {
      "anonymous": false,
      "inputs": [
        {
          "indexed": true,
          "internalType": "address",
          "name": "to",
          "type": "address"
        },
        {
          "indexed": true,
          "internalType": "address",
          "name": "l1Token",
          "type": "address"
        },
        {
          "indexed": false,
          "internalType": "uint256",
          "name": "amount",
          "type": "uint256"
        }
      ],
      "name": "ClaimedFailedDeposit",
      "type": "event"
    },
    {
      "anonymous": false,
      "inputs": [
        {
          "indexed": true,
          "internalType": "bytes32",
          "name": "l2DepositTxHash",
          "type": "bytes32"
        },
        {
          "indexed": true,
          "internalType": "address",
          "name": "from",
          "type": "address"
        },
        {
          "indexed": true,
          "internalType": "address",
          "name": "to",
          "type": "address"
        },
        {
          "indexed": false,
          "internalType": "address",
          "name": "l1Token",
          "type": "address"
        },
        {
          "indexed": false,
          "internalType": "uint256",
          "name": "amount",
          "type": "uint256"
        },
        {
          "indexed": false,
          "internalType": "address",
          "name": "refundRecipient",
          "type": "address"
        }
      ],
      "name": "DepositInitiated",
      "type": "event"
    },
    {
      "anonymous": false,
      "inputs": [
        {
          "indexed": true,
          "internalType": "address",
          "name": "to",
          "type": "address"
        },
        {
          "indexed": true,
          "internalType": "address",
          "name": "l1Token",
          "type": "address"
        },
        {
          "indexed": false,
          "internalType": "uint256",
          "name": "amount",
          "type": "uint256"
        }
      ],
      "name": "WithdrawalFinalized",
      "type": "event"
    },
    {
      "inputs": [
        {
          "internalType": "address",
          "name": "_depositSender",
          "type": "address"
        },
        {
          "internalType": "address",
          "name": "_l1Token",
          "type": "address"
        },
        {
          "internalType": "bytes32",
          "name": "_l2TxHash",
          "type": "bytes32"
        },
        {
          "internalType": "uint256",
          "name": "_l2BlockNumber",
          "type": "uint256"
        },
        {
          "internalType": "uint256",
          "name": "_l2MessageIndex",
          "type": "uint256"
        },
        {
          "internalType": "uint16",
          "name": "_l2TxNumberInBlock",
          "type": "uint16"
        },
        {
          "internalType": "bytes32[]",
          "name": "_merkleProof",
          "type": "bytes32[]"
        }
      ],
      "name": "claimFailedDeposit",
      "outputs": [],
      "stateMutability": "nonpayable",
      "type": "function"
    },
    {
      "inputs": [
        {
          "internalType": "address",
          "name": "_l2Receiver",
          "type": "address"
        },
        {
          "internalType": "address",
          "name": "_l1Token",
          "type": "address"
        },
        {
          "internalType": "uint256",
          "name": "_amount",
          "type": "uint256"
        },
        {
          "internalType": "uint256",
          "name": "_l2TxGasLimit",
          "type": "uint256"
        },
        {
          "internalType": "uint256",
          "name": "_l2TxGasPerPubdataByte",
          "type": "uint256"
        }
      ],
      "name": "deposit",
      "outputs": [
        {
          "internalType": "bytes32",
          "name": "l2TxHash",
          "type": "bytes32"
        }
      ],
      "stateMutability": "payable",
      "type": "function"
    },
    {
      "inputs": [
        {
          "internalType": "address",
          "name": "_l2Receiver",
          "type": "address"
        },
        {
          "internalType": "address",
          "name": "_l1Token",
          "type": "address"
        },
        {
          "internalType": "uint256",
          "name": "_amount",
          "type": "uint256"
        },
        {
          "internalType": "uint256",
          "name": "_l2TxGasLimit",
          "type": "uint256"
        },
        {
          "internalType": "uint256",
          "name": "_l2TxGasPerPubdataByte",
          "type": "uint256"
        },
        {
          "internalType": "address",
          "name": "_refundRecipient",
          "type": "address"
        }
      ],
      "name": "deposit",
      "outputs": [
        {
          "internalType": "bytes32",
          "name": "l2TxHash",
          "type": "bytes32"
        }
      ],
      "stateMutability": "payable",
      "type": "function"
    },
    {
      "inputs": [
        {
          "internalType": "address",
          "name": "",
          "type": "address"
        },
        {
          "internalType": "bytes32",
          "name": "",
          "type": "bytes32"
        }
      ],
      "name": "depositAmount",
      "outputs": [
        {
          "internalType": "uint256",
          "name": "",
          "type": "uint256"
        }
      ],
      "stateMutability": "view",
      "type": "function"
    },
    {
      "inputs": [
        {
          "internalType": "uint256",
          "name": "_l2BlockNumber",
          "type": "uint256"
        },
        {
          "internalType": "uint256",
          "name": "_l2MessageIndex",
          "type": "uint256"
        },
        {
          "internalType": "uint16",
          "name": "_l2TxNumberInBlock",
          "type": "uint16"
        },
        {
          "internalType": "bytes",
          "name": "_message",
          "type": "bytes"
        },
        {
          "internalType": "bytes32[]",
          "name": "_merkleProof",
          "type": "bytes32[]"
        }
      ],
      "name": "finalizeWithdrawal",
      "outputs": [],
      "stateMutability": "nonpayable",
      "type": "function"
    },
    {
      "inputs": [
        {
          "internalType": "uint256",
          "name": "",
          "type": "uint256"
        },
        {
          "internalType": "uint256",
          "name": "",
          "type": "uint256"
        }
      ],
      "name": "isWithdrawalFinalized",
      "outputs": [
        {
          "internalType": "bool",
          "name": "",
          "type": "bool"
        }
      ],
      "stateMutability": "view",
      "type": "function"
    },
    {
      "inputs": [],
      "name": "l1Token",
      "outputs": [
        {
          "internalType": "address",
          "name": "",
          "type": "address"
        }
      ],
      "stateMutability": "view",
      "type": "function"
    },
    {
      "inputs": [],
      "name": "l2Bridge",
      "outputs": [
        {
          "internalType": "address",
          "name": "",
          "type": "address"
        }
      ],
      "stateMutability": "view",
      "type": "function"
    },
    {
      "inputs": [],
      "name": "l2Token",
      "outputs": [
        {
          "internalType": "address",
          "name": "",
          "type": "address"
        }
      ],
      "stateMutability": "view",
      "type": "function"
    },
    {
      "inputs": [
        {
          "internalType": "address",
          "name": "_l1Token",
          "type": "address"
        }
      ],
      "name": "l2TokenAddress",
      "outputs": [
        {
          "internalType": "address",
          "name": "l2TokenAddr",
          "type": "address"
        }
      ],
      "stateMutability": "view",
      "type": "function"
    },
    {
      "inputs": [],
      "name": "zkSync",
      "outputs": [
        {
          "internalType": "contract IZkSync",
          "name": "",
          "type": "address"
        }
      ],
      "stateMutability": "view",
      "type": "function"
    }
  ],
  "bytecode": "0x60806040526040516200273638038062002736833981016040819052620000269162000610565b81516020830151600080546001600160a01b039384166001600160a01b03199182161790915560018054939092169216919091178155835114620000bd5760405162461bcd60e51b8152602060048201526024808201527f496e76616c696420666163746f72792064657073206c656e6774682070726f766044820152631a59195960e21b60648201526084015b60405180910390fd5b803414620001285760405162461bcd60e51b815260206004820152603160248201527f5468652063616c6c6572206d697363616c63756c61746564206465706c6f79206044820152707472616e73616374696f6e73206665657360781b6064820152608401620000b4565b8160400151600260006101000a8154816001600160a01b0302191690836001600160a01b03160217905550600062000188846000815181106200016f576200016f62000758565b60200260200101516200021660201b62000cf51760201c565b83516020808601516040805130818501526001600160a01b0394851681830152918416606080840191909152815180840390910181526080909201905260025493945092620001ea9216908590859085908a9062000efe62000360821b17901c565b600580546001600160a01b0319166001600160a01b039290921691909117905550620008f59350505050565b60006020825162000228919062000784565b156200025c5760405162461bcd60e51b8152602060048201526002602482015261189b60f21b6044820152606401620000b4565b6000602083516200026e91906200079b565b9050620100008110620002a95760405162461bcd60e51b8152602060048201526002602482015261070760f41b6044820152606401620000b4565b620002b660028262000784565b600114620002ec5760405162461bcd60e51b8152602060048201526002602482015261383960f11b6044820152606401620000b4565b600283604051620002fe9190620007b2565b602060405180830381855afa1580156200031c573d6000803e3d6000fd5b5050506040513d601f19601f82011682018060405250810190620003419190620007d0565b60e09190911b6001600160e01b039190911617600160f81b1792915050565b6000806000801b85856040516024016200037d9392919062000818565b60408051601f198184030181529181526020820180516001600160e01b0316633cda335160e01b1790525163eb67241960e01b81529091506001600160a01b0388169063eb672419908890620003ec906180069060009087906298968090610320908c90339060040162000842565b60206040518083038185885af11580156200040b573d6000803e3d6000fd5b50505050506040513d601f19601f82011682018060405250810190620004329190620007d0565b506200046b6200044d306200047660201b620010721760201c565b6000801b8787805190602001206200048f60201b6200108b1760201c565b979650505050505050565b7311110000000000000000000000000000000011110190565b604080517f2020dba91b30cc0006188af794c2fb30dd8520db7e2c088b7fc7c103c00ca4946020808301919091526001600160a01b0396909616818301526060810194909452608084019290925260a0808401919091528151808403909101815260c09092019052805191012090565b634e487b7160e01b600052604160045260246000fd5b604051601f8201601f191681016001600160401b0381118282101715620005405762000540620004ff565b604052919050565b60005b83811015620005655781810151838201526020016200054b565b8381111562000575576000848401525b50505050565b80516001600160a01b03811681146200059357600080fd5b919050565b600060608284031215620005ab57600080fd5b604051606081016001600160401b0381118282101715620005d057620005d0620004ff565b604052905080620005e1836200057b565b8152620005f1602084016200057b565b602082015262000604604084016200057b565b60408201525092915050565b600080600060a084860312156200062657600080fd5b83516001600160401b03808211156200063e57600080fd5b818601915086601f8301126200065357600080fd5b81516020828211156200066a576200066a620004ff565b8160051b6200067b82820162000515565b928352848101820192828101908b8511156200069657600080fd5b83870192505b848310156200073057825186811115620006b65760008081fd5b8701603f81018d13620006c95760008081fd5b84810151604088821115620006e257620006e2620004ff565b620006f6601f8301601f1916880162000515565b8281528f828486010111156200070c5760008081fd5b6200071d8389830184870162000548565b855250505091830191908301906200069c565b8099505050506200074489828a0162000598565b955050505050608084015190509250925092565b634e487b7160e01b600052603260045260246000fd5b634e487b7160e01b600052601260045260246000fd5b6000826200079657620007966200076e565b500690565b600082620007ad57620007ad6200076e565b500490565b60008251620007c681846020870162000548565b9190910192915050565b600060208284031215620007e357600080fd5b5051919050565b600081518084526200080481602086016020860162000548565b601f01601f19169290920160200192915050565b838152826020820152606060408201526000620008396060830184620007ea565b95945050505050565b60018060a01b038816815260006020888184015260e060408401526200086c60e0840189620007ea565b87606085015286608085015283810360a08501528086518083528383019150838160051b84010184890160005b83811015620008cb57601f19868403018552620008b8838351620007ea565b9487019492509086019060010162000899565b50506001600160a01b03881660c08801529450620008e99350505050565b98975050505050505050565b611e3180620009056000396000f3fe6080604052600436106100bc5760003560e01c80637c19f00511610074578063c01e1bd61161004e578063c01e1bd614610258578063e8b99b1b14610285578063f5f151681461029857600080fd5b80637c19f005146101eb578063933999fb14610218578063ae1f6aaf1461022b57600080fd5b806319fa7f62116100a557806319fa7f621461012e5780634bed82121461014e57806356eff2671461019957600080fd5b80630c9f0587146100c157806311a2ccc11461010c575b600080fd5b3480156100cd57600080fd5b506100f96100dc366004611778565b600460209081526000928352604080842090915290825290205481565b6040519081526020015b60405180910390f35b34801561011857600080fd5b5061012c610127366004611800565b6102b8565b005b34801561013a57600080fd5b5061012c6101493660046118c2565b6105ff565b34801561015a57600080fd5b50610189610169366004611954565b600360209081526000928352604080842090915290825290205460ff1681565b6040519015158152602001610103565b3480156101a557600080fd5b506001546101c69073ffffffffffffffffffffffffffffffffffffffff1681565b60405173ffffffffffffffffffffffffffffffffffffffff9091168152602001610103565b3480156101f757600080fd5b506002546101c69073ffffffffffffffffffffffffffffffffffffffff1681565b6100f9610226366004611976565b610856565b34801561023757600080fd5b506005546101c69073ffffffffffffffffffffffffffffffffffffffff1681565b34801561026457600080fd5b506000546101c69073ffffffffffffffffffffffffffffffffffffffff1681565b6100f96102933660046119c3565b610871565b3480156102a457600080fd5b506101c66102b3366004611a22565b610cab565b600087815260036020908152604080832089845290915290205460ff1615610341576040517f08c379a000000000000000000000000000000000000000000000000000000000815260206004820152601f60248201527f5769746864726177616c20697320616c72656164792066696e616c697a65640060448201526064015b60405180910390fd5b600080600061038587878080601f01602080910402602001604051908101604052809392919081815260200183838082843760009201919091525061110a92505050565b925092509250600060405180606001604052808a61ffff168152602001600560009054906101000a900473ffffffffffffffffffffffffffffffffffffffff1673ffffffffffffffffffffffffffffffffffffffff16815260200189898080601f01602080910402602001604051908101604052809392919081815260200183838082843760009201829052509390945250506002546040517fe4948f43000000000000000000000000000000000000000000000000000000008152939450909273ffffffffffffffffffffffffffffffffffffffff909116915063e4948f439061047c908f908f9087908d908d90600401611b09565b602060405180830381865afa158015610499573d6000803e3d6000fd5b505050506040513d601f19601f820116820180604052508101906104bd9190611b80565b905080610526576040517f08c379a000000000000000000000000000000000000000000000000000000000815260206004820181905260248201527f50726f76696e67206d65737361676520696e636c7573696f6e206661696c65646044820152606401610338565b5060008b81526003602090815260408083208d8452909152812080547fffffffffffffffffffffffffffffffffffffffffffffffffffffffffffffff001660011790555461058b9073ffffffffffffffffffffffffffffffffffffffff16858461124e565b8273ffffffffffffffffffffffffffffffffffffffff168473ffffffffffffffffffffffffffffffffffffffff167fac1b18083978656d557d6e91c88203585cfda1031bdb14538327121ef140d383846040516105ea91815260200190565b60405180910390a35050505050505050505050565b6002546040517f042901c700000000000000000000000000000000000000000000000000000000815260009173ffffffffffffffffffffffffffffffffffffffff169063042901c790610662908a908a908a908a908a908a908a90600401611ba2565b602060405180830381865afa15801561067f573d6000803e3d6000fd5b505050506040513d601f19601f820116820180604052508101906106a39190611b80565b90508061070c576040517f08c379a000000000000000000000000000000000000000000000000000000000815260206004820152601660248201527f5468652070726f6f66206973206e6f742076616c6964000000000000000000006044820152606401610338565b73ffffffffffffffffffffffffffffffffffffffff891660009081526004602090815260408083208a8452909152902054806107a4576040517f08c379a000000000000000000000000000000000000000000000000000000000815260206004820181905260248201527f54686520636c61696d656420616d6f756e742063616e2774206265207a65726f6044820152606401610338565b73ffffffffffffffffffffffffffffffffffffffff808b1660009081526004602090815260408083208c84529091528120556107e3908a168b8361124e565b8873ffffffffffffffffffffffffffffffffffffffff168a73ffffffffffffffffffffffffffffffffffffffff167fbe066dc591f4a444f75176d387c3e6c775e5706d9ea9a91d11eb49030c66cf608360405161084291815260200190565b60405180910390a350505050505050505050565b600061086786868686866000610871565b9695505050505050565b60008054869073ffffffffffffffffffffffffffffffffffffffff8083169116146108c8576040517ffe15603f00000000000000000000000000000000000000000000000000000000815260040160405180910390fd5b73ffffffffffffffffffffffffffffffffffffffff881661096b576040517f08c379a000000000000000000000000000000000000000000000000000000000815260206004820152602560248201527f546865205f6c32526563656976657220616464726573732063616e277420626560448201527f207a65726f0000000000000000000000000000000000000000000000000000006064820152608401610338565b856000036109d5576040517f08c379a000000000000000000000000000000000000000000000000000000000815260206004820181905260248201527f546865206465706f73697420616d6f756e742063616e2774206265207a65726f6044820152606401610338565b60006109e2338989611327565b9050868114610a73576040517f08c379a000000000000000000000000000000000000000000000000000000000815260206004820152602960248201527f54686520746f6b656e20686173206e6f6e2d7374616e64617264207472616e7360448201527f666572206c6f67696300000000000000000000000000000000000000000000006064820152608401610338565b6040805133602482015273ffffffffffffffffffffffffffffffffffffffff8b811660448301528a1660648201526084810183905260a060a4820152600060c48083018290528351808403909101815260e49092019092526020810180517bffffffffffffffffffffffffffffffffffffffffffffffffffffffff167fcfe7af7c0000000000000000000000000000000000000000000000000000000017905290508473ffffffffffffffffffffffffffffffffffffffff8116610b5957323303610b3e5733610b56565b73111100000000000000000000000000000000111133015b90505b60025460055473ffffffffffffffffffffffffffffffffffffffff9182169163eb672419913491166000868d8d83604051908082528060200260200182016040528015610bba57816020015b6060815260200190600190039081610ba55790505b50896040518963ffffffff1660e01b8152600401610bde9796959493929190611c1d565b60206040518083038185885af1158015610bfc573d6000803e3d6000fd5b50505050506040513d601f19601f82011682018060405250810190610c219190611cf6565b336000818152600460209081526040808320858452825291829020879055815173ffffffffffffffffffffffffffffffffffffffff8f811682529181018890528582168184015291519398508e169288917fd08378fce93dcb824c01a820d7bedc830e372181ff1c094cde090729f65fca75919081900360600190a4505050509695505050505050565b6000805473ffffffffffffffffffffffffffffffffffffffff838116911614610cd5576000610cef565b60015473ffffffffffffffffffffffffffffffffffffffff165b92915050565b600060208251610d059190611d3e565b15610d6c576040517f08c379a000000000000000000000000000000000000000000000000000000000815260206004820152600260248201527f626c0000000000000000000000000000000000000000000000000000000000006044820152606401610338565b600060208351610d7c9190611d52565b9050620100008110610dea576040517f08c379a000000000000000000000000000000000000000000000000000000000815260206004820152600260248201527f70700000000000000000000000000000000000000000000000000000000000006044820152606401610338565b610df5600282611d3e565b600114610e5e576040517f08c379a000000000000000000000000000000000000000000000000000000000815260206004820152600260248201527f70720000000000000000000000000000000000000000000000000000000000006044820152606401610338565b600283604051610e6e9190611d66565b602060405180830381855afa158015610e8b573d6000803e3d6000fd5b5050506040513d601f19601f82011682018060405250810190610eae9190611cf6565b60e09190911b7bffffffffffffffffffffffffffffffffffffffffffffffffffffffff91909116177f01000000000000000000000000000000000000000000000000000000000000001792915050565b6000806000801b8585604051602401610f1993929190611d82565b604080517fffffffffffffffffffffffffffffffffffffffffffffffffffffffffffffffe08184030181529181526020820180517bffffffffffffffffffffffffffffffffffffffffffffffffffffffff167f3cda335100000000000000000000000000000000000000000000000000000000179052517feb67241900000000000000000000000000000000000000000000000000000000815290915073ffffffffffffffffffffffffffffffffffffffff88169063eb672419908890610ff8906180069060009087906298968090610320908c903390600401611c1d565b60206040518083038185885af1158015611016573d6000803e3d6000fd5b50505050506040513d601f19601f8201168201806040525081019061103b9190611cf6565b50611067731111000000000000000000000000000000001111300185516020870120600090889061108b565b979650505050505050565b7311110000000000000000000000000000000011110190565b604080517f2020dba91b30cc0006188af794c2fb30dd8520db7e2c088b7fc7c103c00ca49460208083019190915273ffffffffffffffffffffffffffffffffffffffff871682840152606082018690526080820185905260a08083018590528351808403909101815260c090920190925280519101205b949350505050565b60008060008351604c1461117a576040517f08c379a000000000000000000000000000000000000000000000000000000000815260206004820152601d60248201527f496e76616c6964206c656e677468206f6620746865206d6573736167650000006044820152606401610338565b600484810151907f11a2ccc1000000000000000000000000000000000000000000000000000000007fffffffff0000000000000000000000000000000000000000000000000000000060e084901b1614611230576040517f08c379a000000000000000000000000000000000000000000000000000000000815260206004820152601f60248201527f4e6f6e2d6d61746368696e672066756e6374696f6e2073656c6563746f7273006044820152606401610338565b60149501948501516028860151604890960151909690945092505050565b60405173ffffffffffffffffffffffffffffffffffffffff83166024820152604481018290526113229084907fa9059cbb00000000000000000000000000000000000000000000000000000000906064015b604080517fffffffffffffffffffffffffffffffffffffffffffffffffffffffffffffffe08184030181529190526020810180517bffffffffffffffffffffffffffffffffffffffffffffffffffffffff167fffffffff000000000000000000000000000000000000000000000000000000009093169290921790915261147b565b505050565b6040517f70a08231000000000000000000000000000000000000000000000000000000008152306004820152600090819073ffffffffffffffffffffffffffffffffffffffff8516906370a0823190602401602060405180830381865afa158015611396573d6000803e3d6000fd5b505050506040513d601f19601f820116820180604052508101906113ba9190611cf6565b90506113de73ffffffffffffffffffffffffffffffffffffffff851686308661158a565b6040517f70a0823100000000000000000000000000000000000000000000000000000000815230600482015260009073ffffffffffffffffffffffffffffffffffffffff8616906370a0823190602401602060405180830381865afa15801561144b573d6000803e3d6000fd5b505050506040513d601f19601f8201168201806040525081019061146f9190611cf6565b90506108678282611daa565b60006114dd826040518060400160405280602081526020017f5361666545524332303a206c6f772d6c6576656c2063616c6c206661696c65648152508573ffffffffffffffffffffffffffffffffffffffff166115ee9092919063ffffffff16565b90508051600014806114fe5750808060200190518101906114fe9190611b80565b611322576040517f08c379a000000000000000000000000000000000000000000000000000000000815260206004820152602a60248201527f5361666545524332303a204552433230206f7065726174696f6e20646964206e60448201527f6f742073756363656564000000000000000000000000000000000000000000006064820152608401610338565b60405173ffffffffffffffffffffffffffffffffffffffff808516602483015283166044820152606481018290526115e89085907f23b872dd00000000000000000000000000000000000000000000000000000000906084016112a0565b50505050565b60606111028484600085856000808673ffffffffffffffffffffffffffffffffffffffff1685876040516116229190611d66565b60006040518083038185875af1925050503d806000811461165f576040519150601f19603f3d011682016040523d82523d6000602084013e611664565b606091505b509150915061106787838387606083156117065782516000036116ff5773ffffffffffffffffffffffffffffffffffffffff85163b6116ff576040517f08c379a000000000000000000000000000000000000000000000000000000000815260206004820152601d60248201527f416464726573733a2063616c6c20746f206e6f6e2d636f6e74726163740000006044820152606401610338565b5081611102565b611102838381511561171b5781518083602001fd5b806040517f08c379a00000000000000000000000000000000000000000000000000000000081526004016103389190611de8565b803573ffffffffffffffffffffffffffffffffffffffff8116811461177357600080fd5b919050565b6000806040838503121561178b57600080fd5b6117948361174f565b946020939093013593505050565b803561ffff8116811461177357600080fd5b60008083601f8401126117c657600080fd5b50813567ffffffffffffffff8111156117de57600080fd5b6020830191508360208260051b85010111156117f957600080fd5b9250929050565b600080600080600080600060a0888a03121561181b57600080fd5b8735965060208801359550611832604089016117a2565b9450606088013567ffffffffffffffff8082111561184f57600080fd5b818a0191508a601f83011261186357600080fd5b81358181111561187257600080fd5b8b602082850101111561188457600080fd5b6020830196508095505060808a01359150808211156118a257600080fd5b506118af8a828b016117b4565b989b979a50959850939692959293505050565b60008060008060008060008060e0898b0312156118de57600080fd5b6118e78961174f565b97506118f560208a0161174f565b965060408901359550606089013594506080890135935061191860a08a016117a2565b925060c089013567ffffffffffffffff81111561193457600080fd5b6119408b828c016117b4565b999c989b5096995094979396929594505050565b6000806040838503121561196757600080fd5b50508035926020909101359150565b600080600080600060a0868803121561198e57600080fd5b6119978661174f565b94506119a56020870161174f565b94979496505050506040830135926060810135926080909101359150565b60008060008060008060c087890312156119dc57600080fd5b6119e58761174f565b95506119f36020880161174f565b9450604087013593506060870135925060808701359150611a1660a0880161174f565b90509295509295509295565b600060208284031215611a3457600080fd5b611a3d8261174f565b9392505050565b60005b83811015611a5f578181015183820152602001611a47565b838111156115e85750506000910152565b60008151808452611a88816020860160208601611a44565b601f017fffffffffffffffffffffffffffffffffffffffffffffffffffffffffffffffe0169290920160200192915050565b81835260007f07ffffffffffffffffffffffffffffffffffffffffffffffffffffffffffffff831115611aec57600080fd5b8260051b8083602087013760009401602001938452509192915050565b8581528460208201526080604082015261ffff845116608082015273ffffffffffffffffffffffffffffffffffffffff60208501511660a082015260006040850151606060c0840152611b5f60e0840182611a70565b90508281036060840152611b74818587611aba565b98975050505050505050565b600060208284031215611b9257600080fd5b81518015158114611a3d57600080fd5b87815286602082015285604082015261ffff8516606082015260c060808201526000611bd260c083018587611aba565b905060028310611c0b577f4e487b7100000000000000000000000000000000000000000000000000000000600052602160045260246000fd5b8260a083015298975050505050505050565b73ffffffffffffffffffffffffffffffffffffffff8816815260006020888184015260e06040840152611c5360e0840189611a70565b87606085015286608085015283810360a08501528086518083528383019150838160051b84010184890160005b83811015611ccc577fffffffffffffffffffffffffffffffffffffffffffffffffffffffffffffffe0868403018552611cba838351611a70565b94870194925090860190600101611c80565b505073ffffffffffffffffffffffffffffffffffffffff881660c08801529450611b749350505050565b600060208284031215611d0857600080fd5b5051919050565b7f4e487b7100000000000000000000000000000000000000000000000000000000600052601260045260246000fd5b600082611d4d57611d4d611d0f565b500690565b600082611d6157611d61611d0f565b500490565b60008251611d78818460208701611a44565b9190910192915050565b838152826020820152606060408201526000611da16060830184611a70565b95945050505050565b600082821015611de3577f4e487b7100000000000000000000000000000000000000000000000000000000600052601160045260246000fd5b500390565b602081526000611a3d6020830184611a7056fea2646970667358221220fced03320130dad330683c7ee026bb3d95ce5a87677a35363e08e64893d5158564736f6c634300080f0033",
  "linkReferences": {},
  "deployedLinkReferences": {}
}