{"abi":[{"type":"function","name":"proveL2LeafInclusionShared","inputs":[{"name":"_chainId","type":"uint256","internalType":"uint256"},{"name":"_blockOrBatchNumber","type":"uint256","internalType":"uint256"},{"name":"_leafProofMask","type":"uint256","internalType":"uint256"},{"name":"_leaf","type":"bytes32","internalType":"bytes32"},{"name":"_proof","type":"bytes32[]","internalType":"bytes32[]"}],"outputs":[{"name":"","type":"bool","internalType":"bool"}],"stateMutability":"view"},{"type":"function","name":"proveL2LogInclusionShared","inputs":[{"name":"_chainId","type":"uint256","internalType":"uint256"},{"name":"_blockOrBatchNumber","type":"uint256","internalType":"uint256"},{"name":"_index","type":"uint256","internalType":"uint256"},{"name":"_log","type":"tuple","internalType":"struct L2Log","components":[{"name":"l2ShardId","type":"uint8","internalType":"uint8"},{"name":"isService","type":"bool","internalType":"bool"},{"name":"txNumberInBatch","type":"uint16","internalType":"uint16"},{"name":"sender","type":"address","internalType":"address"},{"name":"key","type":"bytes32","internalType":"bytes32"},{"name":"value","type":"bytes32","internalType":"bytes32"}]},{"name":"_proof","type":"bytes32[]","internalType":"bytes32[]"}],"outputs":[{"name":"","type":"bool","internalType":"bool"}],"stateMutability":"view"},{"type":"function","name":"proveL2MessageInclusionShared","inputs":[{"name":"_chainId","type":"uint256","internalType":"uint256"},{"name":"_blockOrBatchNumber","type":"uint256","internalType":"uint256"},{"name":"_index","type":"uint256","internalType":"uint256"},{"name":"_message","type":"tuple","internalType":"struct L2Message","components":[{"name":"txNumberInBatch","type":"uint16","internalType":"uint16"},{"name":"sender","type":"address","internalType":"address"},{"name":"data","type":"bytes","internalType":"bytes"}]},{"name":"_proof","type":"bytes32[]","internalType":"bytes32[]"}],"outputs":[{"name":"","type":"bool","internalType":"bool"}],"stateMutability":"view"},{"type":"error","name":"HashedLogIsDefault","inputs":[]},{"type":"error","name":"InvalidProofLengthForFinalNode","inputs":[]},{"type":"error","name":"MerkleIndexOutOfBounds","inputs":[]},{"type":"error","name":"MerklePathEmpty","inputs":[]},{"type":"error","name":"MerklePathOutOfBounds","inputs":[]},{"type":"error","name":"UnsupportedProofMetadataVersion","inputs":[{"name":"metadataVersion","type":"uint256","internalType":"uint256"}]}],"bytecode":{"object":"0x6080604052348015600e575f5ffd5b506110378061001c5f395ff3fe608060405234801561000f575f5ffd5b506004361061003f575f3560e01c806318b7fc221461004357806379cf61651461006a578063e896760d1461007d575b5f5ffd5b610056610051366004610afb565b610090565b604051901515815260200160405180910390f35b610056610078366004610b85565b6100b4565b61005661008b366004610bcc565b6100c3565b5f6100a78787876100a0886100d9565b87876101ba565b90505b9695505050505050565b5f6100a78787878787876102b9565b5f6100a78787876100a036899003890189610cd6565b6040805160c080820183525f8083526020808401829052838501829052606084018290526080840182905260a0840182905284519283018552908252600182820152919290919082019061012f90850185610d8e565b61ffff1681526020016101456180006008610ddb565b73ffffffffffffffffffffffffffffffffffffffff1681526020018360200160208101906101739190610e07565b73ffffffffffffffffffffffffffffffffffffffff16815260200161019b6040850185610e20565b6040516101a9929190610e81565b604051908190039020905292915050565b5f5f845f015185602001518660400151876060015188608001518960a001516040516020016102879695949392919060f896871b7fff0000000000000000000000000000000000000000000000000000000000000016815294151590951b600185015260f09290921b7fffff00000000000000000000000000000000000000000000000000000000000016600284015260601b7fffffffffffffffffffffffffffffffffffffffff0000000000000000000000001660048301526018820152603881019190915260580190565b6040516020818303038152906040528051906020012090506102ad8888888488886102b9565b98975050505050505050565b5f5f6102c9888888888888610434565b90508060e0015115610397575f6102e4620100006008610ddb565b6040517f77cfd171000000000000000000000000000000000000000000000000000000008152600481018b9052602481018a905273ffffffffffffffffffffffffffffffffffffffff91909116906377cfd17190604401602060405180830381865afa158015610356573d5f5f3e3d5ffd5b505050506040513d601f19601f8201168201806040525081019061037a9190610e90565b905081608001518114801561038e57508015155b925050506100aa565b3073ffffffffffffffffffffffffffffffffffffffff166379cf6165825f0151836020015184604001518560a001516103d58a8a8960c00151610703565b6040518663ffffffff1660e01b81526004016103f5959493929190610ea7565b602060405180830381865afa158015610410573d5f5f3e3d5ffd5b505050506040513d601f19601f820116820180604052508101906102ad9190610f09565b6104766040518061010001604052805f81526020015f81526020015f81526020015f81526020015f81526020015f81526020015f81526020015f151581525090565b5f8290036104b0576040517f8e23ac1a00000000000000000000000000000000000000000000000000000000815260040160405180910390fd5b7f8d5411ba4a61cbb507591adfdbe3b8bb500d912bee0b3b4ff0750f652525bc468401610509576040517fd356e6ba00000000000000000000000000000000000000000000000000000000815260040160405180910390fd5b5f6105148484610719565b805160c0840181905260208201519192505f9161054991610542918891889161053d9082610f24565b610848565b88886108f4565b905081602001518360c0018181516105619190610f24565b90525060808301819052606082018051151560e085015251156105855750506100aa565b5f610590828a61099b565b90505f86868660c001518181106105a9576105a9610f37565b905060200201355f1c90508460c00180516105c390610f64565b905260c085015160408501515f916105ef916105e8918b918b919061053d9082610f24565b83856108f4565b905084604001518660c0018181516106079190610f24565b905250610614818d6109f7565b8660a0018181525050505050505f5f5f5f87878760c0015181811061063b5761063b610f37565b905060200201355f1c90508560c001805161065590610f64565b905260c0860151608082901c93506fffffffffffffffffffffffffffffffff821692508890889081811061068b5761068b610f37565b905060200201355f1c93508560c00180516106a590610f64565b90525060408051610100810182529384526020840192909252828201528201516060808301919091526080848101519083015260a0808501519083015260c09384015193820193909352910151151560e08201529695505050505050565b606061071184848481610848565b949350505050565b61074260405180608001604052805f81526020015f81526020015f81526020015f151581525090565b5f83835f81811061075557610755610f37565b6020908102929092013592505081901b5f8190036107dd578160f881901c6001146107b6576040517f79274f0400000000000000000000000000000000000000000000000000000000815260f882901c600482015260240160405180910390fd5b600180855283901a60208501528260021a60408501528260031a15156060850152506107f5565b5f808452602084018590526040840152600160608401525b826060015180156108095750604083015115155b15610840576040517f48c5fa2800000000000000000000000000000000000000000000000000000000815260040160405180910390fd5b505092915050565b60606108548383610f9b565b67ffffffffffffffff81111561086c5761086c610c45565b604051908082528060200260200182016040528015610895578160200160208202803683370190505b509050825b828110156108eb578585828181106108b4576108b4610f37565b905060200201358285836108c89190610f9b565b815181106108d8576108d8610f37565b602090810291909101015260010161089a565b50949350505050565b82515f906109028482610a38565b825f5b8281101561099157610918600287610fdb565b1561094e5761094987828151811061093257610932610f37565b6020026020010151835f9182526020526040902090565b61097a565b61097a8288838151811061096457610964610f37565b60200260200101515f9182526020526040902090565b9150610987600287610fee565b9550600101610905565b5095945050505050565b604080517fd82fec4a37cbdc47f1e5cc4ad64deacf34a48e6f7c61fa5b68fd58e543259cf46020820152908101839052606081018290525f906080015b6040516020818303038152906040528051906020012090505b92915050565b604080517f39bc69363bb9e26cf14240de4e22569e95cf175cfbcf1ade1a47a253b4bf7f616020820152908101839052606081018290525f906080016109d8565b6101008110610a73576040517f1c50038500000000000000000000000000000000000000000000000000000000815260040160405180910390fd5b6001811b8210610aaf576040517f9bb54c3500000000000000000000000000000000000000000000000000000000815260040160405180910390fd5b5050565b5f5f83601f840112610ac3575f5ffd5b50813567ffffffffffffffff811115610ada575f5ffd5b6020830191508360208260051b8501011115610af4575f5ffd5b9250929050565b5f5f5f5f5f5f60a08789031215610b10575f5ffd5b863595506020870135945060408701359350606087013567ffffffffffffffff811115610b3b575f5ffd5b87016060818a031215610b4c575f5ffd5b9250608087013567ffffffffffffffff811115610b67575f5ffd5b610b7389828a01610ab3565b979a9699509497509295939492505050565b5f5f5f5f5f5f60a08789031215610b9a575f5ffd5b86359550602087013594506040870135935060608701359250608087013567ffffffffffffffff811115610b67575f5ffd5b5f5f5f5f5f5f868803610140811215610be3575f5ffd5b87359650602088013595506040880135945060c07fffffffffffffffffffffffffffffffffffffffffffffffffffffffffffffffa082011215610c24575f5ffd5b5060608701925061012087013567ffffffffffffffff811115610b67575f5ffd5b7f4e487b71000000000000000000000000000000000000000000000000000000005f52604160045260245ffd5b803560ff81168114610c82575f5ffd5b919050565b8015158114610c94575f5ffd5b50565b8035610c8281610c87565b803561ffff81168114610c82575f5ffd5b803573ffffffffffffffffffffffffffffffffffffffff81168114610c82575f5ffd5b5f60c0828403128015610ce7575f5ffd5b5060405160c0810167ffffffffffffffff81118282101715610d30577f4e487b71000000000000000000000000000000000000000000000000000000005f52604160045260245ffd5b604052610d3c83610c72565b8152610d4a60208401610c97565b6020820152610d5b60408401610ca2565b6040820152610d6c60608401610cb3565b60608201526080838101359082015260a0928301359281019290925250919050565b5f60208284031215610d9e575f5ffd5b610da782610ca2565b9392505050565b7f4e487b71000000000000000000000000000000000000000000000000000000005f52601160045260245ffd5b73ffffffffffffffffffffffffffffffffffffffff81811683821601908111156109f1576109f1610dae565b5f60208284031215610e17575f5ffd5b610da782610cb3565b5f5f83357fffffffffffffffffffffffffffffffffffffffffffffffffffffffffffffffe1843603018112610e53575f5ffd5b83018035915067ffffffffffffffff821115610e6d575f5ffd5b602001915036819003821315610af4575f5ffd5b818382375f9101908152919050565b5f60208284031215610ea0575f5ffd5b5051919050565b5f60a0820187835286602084015285604084015284606084015260a0608084015280845180835260c0850191506020860192505f5b81811015610efa578351835260209384019390920191600101610edc565b50909998505050505050505050565b5f60208284031215610f19575f5ffd5b8151610da781610c87565b808201808211156109f1576109f1610dae565b7f4e487b71000000000000000000000000000000000000000000000000000000005f52603260045260245ffd5b5f7fffffffffffffffffffffffffffffffffffffffffffffffffffffffffffffffff8203610f9457610f94610dae565b5060010190565b818103818111156109f1576109f1610dae565b7f4e487b71000000000000000000000000000000000000000000000000000000005f52601260045260245ffd5b5f82610fe957610fe9610fae565b500690565b5f82610ffc57610ffc610fae565b50049056fea2646970667358221220857ca963652290f46f0a1f7a05bda7b00f7e2fcae52e2b3f0dcb4fea4929673464736f6c634300081c0033","linkReferences":{}},"methodIdentifiers":{"proveL2LeafInclusionShared(uint256,uint256,uint256,bytes32,bytes32[])":"79cf6165","proveL2LogInclusionShared(uint256,uint256,uint256,(uint8,bool,uint16,address,bytes32,bytes32),bytes32[])":"e896760d","proveL2MessageInclusionShared(uint256,uint256,uint256,(uint16,address,bytes),bytes32[])":"18b7fc22"},"id":41}